:020000040000fa
:080000000002040000000000f2
:020000040000fa
:100008009e0200009e0200009e0200009e02000068
:100018009e0200009e0200009e0200009e02000058
:100028009e0200009e0200009e0200009e02000048
:100038009e0200009e0200009e0200009e02000038
:10004800fc0900009e0200009e0200009e020000c3
:100058009e0200009e0200009e0200009e02000018
:100068009e0200009e0200009e0200009e02000008
:100078009e0200009e0200009e0200009e020000f8
:100088009e0200009e0200009e0200009e020000e8
:100098009e0200009e0200009e0200009e020000d8
:1000a8009e0200009e0200009e0200009e020000c8
:1000b8009e0200009e0200009e0200009e020000b8
:1000c8009e0200009e0200009e0200009e020000a8
:1000d8009e0200009e0200009e0200009e02000098
:1000e8009e0200009e0200009e0200009e02000088
:1000f8009e0200009e0200009e0200009e02000078
:100108009e0200009e0200009e0200009e02000067
:100118009e0200009e0200009e0200009e02000057
:100128009e0200009e0200009e0200009e02000047
:100138009e0200009e0200009e0200009e02000037
:100148009e0200009e0200009e0200009e02000027
:100158009e0200009e0200009e0200009e02000017
:100168009e0200009e0200009e0200009e02000007
:100178009e0200009e0200009e0200009e020000f7
:100188009e0200009e0200009e0200009e020000e7
:100198009e0200009e0200009e0200009e020000d7
:1001a8009e0200009e0200009e0200009e020000c7
:1001b8009e0200009e0200009e0200009e020000b7
:1001c8009e0200009e0200009e0200009e020000a7
:1001d8009e0200009e0200009e0200009e02000097
:1001e8009e0200009e0200009e0200009e02000087
:0801f8009e0200009e020000bf
:020000040000fa
:100208009e0200009e0200009e0200009e02000066
:100218009e0200009e0200009e0200009e02000056
:100228009e0200009e0200009e0200009e02000046
:100238009e0200009e0200009e0200009e02000036
:10024800fc0900009e0200009e0200009e020000c1
:100258009e0200009e0200009e0200009e02000016
:100268009e0200009e0200009e0200009e02000006
:100278009e0200009e0200009e0200009e020000f6
:100288009e0200009e0200009e0200009e020000e6
:100298009e0200009e0200009e0200009e020000d6
:1002a8009e0200009e0200009e0200009e020000c6
:1002b8009e0200009e0200009e0200009e020000b6
:1002c8009e0200009e0200009e0200009e020000a6
:1002d8009e0200009e0200009e0200009e02000096
:1002e8009e0200009e0200009e0200009e02000086
:1002f8009e0200009e0200009e0200009e02000076
:100308009e0200009e0200009e0200009e02000065
:100318009e0200009e0200009e0200009e02000055
:100328009e0200009e0200009e0200009e02000045
:100338009e0200009e0200009e0200009e02000035
:100348009e0200009e0200009e0200009e02000025
:100358009e0200009e0200009e0200009e02000015
:100368009e0200009e0200009e0200009e02000005
:100378009e0200009e0200009e0200009e020000f5
:100388009e0200009e0200009e0200009e020000e5
:100398009e0200009e0200009e0200009e020000d5
:1003a8009e0200009e0200009e0200009e020000c5
:1003b8009e0200009e0200009e0200009e020000b5
:1003c8009e0200009e0200009e0200009e020000a5
:1003d8009e0200009e0200009e0200009e02000095
:1003e8009e0200009e0200009e0200009e02000085
:0803f8009e0200009e020000bd
:020000040000fa
:100400006f8120000e7f24000e0188000000000094
:10041000100020000000e000020032000001200077
:10042000200288000c000700e0c521000100200028
:1004300011000700000020000000e0000200320070
:100440000000020000000000fc05020000000000a7
:100450000040da000000fe004440a9000000200037
:100460000000e0000300320000002000a00188002e
:100470004440a80000000600910188008000780038
:100480000000eb0015003700e280400032a0b4000d
:100490009101ba00e280400032a0b4009102ba009b
:1004a000e280400032a0b4000002eb00472bde00e7
:1004b000f507b200602ce10004003a000059eb009f
:1004c0008301e900fdff3e00040037006128e100e0
:1004d000010032000082eb00040007001101ba00a5
:1004e0000200e000e8ff3a00000006003159ba00bf
:1004f0008301e9000c0032002159ba008301e900b0
:10050000080032000400e00003003a00e2804000ee
:1005100032a0b400f5ff370011d9ba008301e90019
:10052000faff3a008100e800e180400032a0b40008
:100530000000060000000000000000000040da009b
:100540000000fe0003f0a200889fbe008a9fbe004c
:100550008c1f7800fe000700050133006450e100a5
:100560004f0032006420e1005200320003826c0030
:1005700007003b000905d0000306d000820f54009d
:100580000c065d000200390002003200890178008b
:10059000030678008582550004003d000003fd003d
:1005a0008103fd008502ea008b854200840f720002
:1005b00002003b0060001000e08018006011b800ed
:1005c0000005eb007a28e1000a00390006007800f7
:1005d000c75ddd00f707b200878075002d0037008a
:1005e000828171000a017800610560008180d1007c
:1005f0000080d3008502e900f9ff3b0006044000bb
:100600008784480002003b0060041400e0841c0062
:100610000988a300070032008a817100828171007d
:10062000610164008904d1000884d3008b05e800cf
:10063000170037000978a30013003a000b00e00010
:10064000130034008b05e9000804440089844c0041
:100650000a4474000978a3000d003a000b00e00082
:10066000070034008b05e9000804440089844c002d
:1006700001003a000b0020000978a300f7ff3200c8
:100680000001eb0002003700828171000a0178004e
:10069000740007000cf0a70001f0a000bd003700b7
:1006a0006420e10002003a00838f6c00bd0033003b
:1006b0000801be000200be00b6003700889fbe00e1
:1006c0008a9fbe008c1f7800a1000700a80033009d
:1006d00003866c006450e1002e0032006420e100cb
:1006e000330032006150e1002f0032006120e10050
:1006f0003100320085855500eb07b000090020006d
:1007000008042000050037000804440089844c00d8
:100710000a0031000603430087834b0000015300a9
:1007200081815b00f8ff33000203be000800a000d7
:100730000804440089844c00f6ff3900c639dd0006
:100740008301730001003200130020008904d100ee
:100750000884d3000998a300050032000800a70010
:100760000300a0008904d1000884d3008b05e800b1
:100770008904d1000884d3000001eb000281d2007b
:100780003800070001f0a1000cf0a70001f0a00064
:10079000800037006420e100820032000801be00c2
:1007a0000200be00f7ff37006120e1007d0032004b
:1007b0006000b800f3ff37000000200001f82700b8
:1007c000f0ff370014002000ad003700f4ff2f00c9
:1007d000ab0037000001be00480007000470a7000e
:1007e00003f0a1006509b100160032000d003500cc
:1007f0006828e10006003500f0ff2f00f1ff270018
:100800000300e00013003b00010028000000050089
:1008100000004000818048008502e900fcff3a00aa
:1008200008003700f88f420002003c008000eb0017
:10083000000005008100d1000080d3008502e8009f
:10084000fcff3a000300e00002003b0060001000e3
:10085000e0801800000006004f89de008201780069
:10086000a200370081002000618055000b003d0090
:100870000b00200061fe2f000100e1001d0034008c
:1008800082817100610164008904d1000884d30071
:100890000000e800faff3a007100200061006400e7
:1008a000030070000200600009003200610444008f
:1008b000e0844c000988a500050032008b05e800a3
:1008c0006808e10002003a008904d1000884d300de
:1008d000f20f20000258e10005003d00c75ddd0079
:1008e000f907b20089807500080078000000060052
:1008f0000bf827008b00780000000500c70ade0017
:10090000f107b200f50fb20008003200e1cf42005b
:10091000020032000170a00024000500810f700069
:10092000010032000408050044000500810f70003a
:1009300002003a00140005008502e90000004000b2
:1009400081c04800fcff3b000170a00024000500ae
:100950000004be00e9ff07000003be000405be005e
:100960000200be00e5ff0700844f7500000006008e
:100970000200be006450e100050036006420e10082
:10098000020036000968a30001003a000800be001a
:100990000160a0004f0678004f05be004f04be0066
:1009a00000000600f0ff2f00f1ff2700f9ff3700dd
:1009b000889fbe008a9fbe008c1f7800e4ff07005e
:1009c000ebff330003866c006450e100240032002a
:1009d0006420e100270032006150e1002200320073
:1009e0006120e100210032008b854200eb07b1005d
:1009f0000134b800003ab8000804420089844a0073
:100a0000013ab8000030b8008880400009014a006f
:100a100004003300000040008180480002014900ca
:100a20008b05e900c909dd00830170000100320077
:100a300013002000c814de004814dd004709de0062
:100a40001200b200c808de000884700085ff0700ad
:100a500001f0a1000cf0a70001f0a000cdff3700cd
:100a60006120e100cfff32000801be000200be009d
:100a7000f7ff37006150e100fcff3a00c9ff370083
:100a8000889fbe008a9fbe00841f7800b0ff0700c9
:100a90004f00780011003300f0ff2f00838f6c00af
:100aa00006003b00040565000a00a70008003700a7
:100ab00009f0a6001000200008003700820f540043
:100ac000838f5c00030039001000200001003e000d
:100ad0000000200009f0a7000000ea004f05be005a
:100ae0004f04be000000e00000000600881f7800f0
:100af000030478000300e00007003d0060001000e0
:100b0000e080180060011900e081190002003b003c
:100b100001f02d00030037000400070008f0a700d3
:100b200001f0a0004f04780000000600889fbe007e
:100b30008a9fbe000082700004027100048271006e
:100b4000260032000004be000200be006011b800a2
:100b50006b092000950220000182cf000a003900b5
:100b60000541b1000082cf00070039000541b10006
:100b70000982cf00040039000541b1000882cf008e
:100b8000010039000541b100054252001200320057
:100b90000a003b0082817100610164008100d10084
:100ba0000080d3008984d3000884d3008b05e8003b
:100bb0000442e800f7ff3a00070037000804440049
:100bc00089844c0000004800818048008b05e900c2
:100bd0000442e900f9ff3a0022ff07004f05be007a
:080be0004f04be0000000600f6
:020000040000fa
:100be8000000fa000ac8bf000080fa0000000600f2
:100bf800a400fa00889fbe0080c1b300801f78005f
:100c08000000eb00801f78007702200026c0b300a8
:100c18008002eb000002eb008001eb000001eb001a
:100c28008000eb000000eb001f090700e487570075
:100c3800c942a9002d63a800c9a2a9000700220083
:100c4800c62c200005402000c42c2000c300200032
:100c5800b200200011c0b30000022000c507070041
:100c6800114e2000000228003a0607008040eb00e1
:100c78000040eb00f001070011c0b3002000200085
:100c8800a1060700c8c2a900c8e2a900ccc2a900f1
:100c9800cce2a9000000eb00300f98008e0078002d
:100ca8000104b000110009008018eb0000042000c6
:100cb8000e004000400f98000e0178004206b00078
:100cc800110009000019eb00400620000e0040004a
:100cd800500f980008020700b13f200000002800cc
:100ce800090607008041eb000041eb0001022000eb
:100cf80010002000590807006000b80040879800dd
:100d0800518798006000b800608798007187980044
:100d18006000b800008f9800118f98006000b8003c
:100d280020079800310798006000b800600f98000d
:100d3800710f98006000b8004007980051079800ac
:100d48006000b8006007980071079800f02621003d
:100d580031b0230000179800111798000000eb002d
:100d6800000f98000040eb00205798000040eb006f
:100d7800406798000040eb003057980000002000c2
:100d8800812c2400301798004117980070712b00af
:100d9800118d230050179800611798003e1090009d
:100da800ce1090000001be00e5fd07005e11900026
:100db800ee119000fcfe07000e1190009e119000ad
:100dc8003cfe07000200200003f82300dcfd0700ba
:100dd8000001be000000200001f8230035fe0700d6
:100de80070179800011f98003e109000ce109000d8
:100df8000001be00d2fd07005e119000ee119000c8
:100e0800e9fe07000e1190009e11900029fe0700d0
:100e18000001be000000200001f82300c7fd070004
:100e2800101f9800211f98006000b8006011b800da
:100e3800208f9800318f9800428f9800538f980028
:100e48006000b8006011b800608f9800718f98003a
:100e58000297980013979800415f20004e08900071
:100e680083070700b50037004e08900066090700a1
:100e7800300f98003e089000d10a2000810f5000e2
:100e88004c003200d10a2000810f50000a003e00b9
:100e9800b10a2000810f500021003200b10a200061
:100ea800810f50002b003e00a10a2000810f500046
:100eb8000b003200a1003700f10a2000810f50001a
:100ec80074003200f10a2000810f500055003900eb
:100ed800010b2000810f50008a0032009700370074
:100ee8004e089000480907004e0890004609070080
:100ef8004e089000440907004e0890004209070078
:100f0800ab010700cf80de0051fe070060079800a4
:100f18007107980010c0b300205798008700370069
:100f28004e089000380907004e089000360907005f
:100f38004e089000340907004e0890003209070057
:100f48000000eb00a50107000040eb0020579800c7
:100f58007a0037004e0890002b0907004e089000d1
:100f6800290907004e0890002709070060779800b4
:100f78004e08900024090700707798006e70900062
:100f88000080fb00c200dd007e7090000080fb0046
:100f980001007000cf80de002dfe070002002c004b
:100fa800f33f240065fd070060079800710798006b
:100fb80062003700880820000e0444004e089000a4
:100fc8001109070000407800004c780080082000d4
:100fd8000e0040000004e8004e0890000a090700cf
:100fe80000407800004c7800800820000e00400087
:100ff8000084e8004e0890000309070000407800cc
:10100800004c7800800820000e0040006304400077
:101018004e089000fc08070000407800004c78005b
:1010280046003700080920000e0444004e089000ce
:10103800f508070000407800004c780000092000ff
:101048000e0040000004e8004e089000ee0807007b
:1010580000407800004c7800000920000e00400095
:101068000084e8004e089000e70807000040780078
:10107800004c7800000920000e0040006304400086
:101088004e089000e008070000407800004c780007
:101098002a003700c80820000e0444004e089000bb
:1010a800d908070000407800004c7800c0082000ec
:1010b8000e0040000004e8004e089000d208070027
:1010c80000407800004c7800c00820000e00400066
:1010d8000084e8004e089000cb0807000040780024
:1010e800004c7800c00820000e0040006304400057
:1010f8004e089000c408070000407800004c7800b3
:101108000e0037004e089000bf0807004e089000f8
:10111800bd0807004e089000bb0807004e08900065
:10112800b908070000f0a7000000ea000000ea0084
:101138004f00de0030579800000000004e08900075
:1011480064080700e40f500047ff3e000ac8bf00cc
:101158000004e000a30032002e5090000004e000dc
:101168009300320012010700cf80de00b8fd0700af
:10117800401f9800511f98004e199000de199000ea
:101188006e009000fe009000ecfc0700600f9800d5
:10119800710f98006e099000fe0990002e009000d3
:1011a800be009000e6fc0700200798003107980071
:1011b8004e019000de0190006e089000fe0890003d
:1011c800defc0700008fbe003e5090000004e000e7
:1011d800230032001e01be00428f9800538f9800f2
:1011e8004e8a9000de8a90002e889000be8890007b
:1011f8000001be000400be00d1fc07000004be00d0
:101208006e889000fe8890001e199000ae1990001c
:10121800e5fd07000001be000800be00c7fc07008e
:101228007e1190008e199000dffd0700009798004e
:10123800119798004e889000de889000208f9800c3
:10124800318f98000e9090009e909000608f9800cb
:10125800718f98000e9190009e919000028fbe00b1
:101268004e809000de8090006e099000fe0990008c
:10127800cdfd07000004be006e809000fe80900047
:101288002e019000be019000c7fd07000e119000ce
:101298009e119000c4fd07000001be000800be00ba
:1012a800a7fc07000004be000e8890009e889000ee
:1012b8001e01be00bcfd07000e1190009e1190009b
:1012c800fcfc07000001be000800be009cfc0700f3
:1012d800601f9800711f980018c0b300020020001a
:1012e800a34f24002e009000be00900035fd07009b
:1012f8000000e00001003c000044eb000804e000ae
:101308000500320000002000a14f240020079800ab
:10131800310798000f00370018c0b3000200200002
:10132800a34f2c002e009000be00900023fd070064
:101338000000e000010035000044eb000804e00074
:101348000400320000002000a14f2c002007980064
:10135800310798006e099000fe0990004207980036
:10136800530798006e189000fe18900017fd0700ac
:10137800200f9800ae089000f03f2000808f5000aa
:1013880003003400f03f2000200f980006003700cb
:10139800ae08900010c02f00808f500002003d0062
:1013a80010c02f00200f98002e0890008b00070017
:1013b80051c5b3005e089000ec070700d1cdb3001b
:1013c8005e089000e90707008040eb005e08900087
:1013d800e60707000a68ef000e0890000000e80022
:1013e800000f98005e0890000c0607009afe370070
:1013f8003600f800809fbe00829fbe00849fbe001a
:10140800869fbe000000fa002000200005050700a6
:101418008706070010c0b3000ae8b7000080fa008a
:101428004f03be004f02be004f01be004f00be007a
:101438003600f900004006000200fa00004f78006c
:10144800114798001e80fb004f00dd000204800059
:10145800f1ff27008100610001007000000488008e
:101468001e409000ef4f500002003600f0c0b3005d
:10147800104798001e4090000080fb004300de00eb
:1014880000407800614060000080fb00610060005f
:101498004300dd002202800071ff2f0081006100ff
:1014a80001007000200288001e4090006740600024
:1014b8000080fb00670060004500dd00120280002c
:1014c800f1f12f0081006100010070001002880016
:1014d8000080fa00000006000000fa0010028000f8
:1014e8000050a0000060a0000070a000100288005a
:1014f8000080fa00000006000000fa002d23a90071
:1015080028e3a9004119800000fe2f000080600038
:101518009000b300401988001019800000d0a10085
:1015280000e0a10000f0a100101988002343a900e1
:10153800101980000080a1000090a10010198800f7
:10154800101980000020a1000030a1000040a10077
:101558000050a100101988002223a9002203a90025
:1015680025e3a90030c0b30024e3b70021a3a900f4
:101578002183a8002143a900001980000080a00051
:101588000090a10000198800001980000050a000f8
:101598000060a0000070a000001988002063a90066
:1015a8002043a90021e3a8000080fa0000000600fb
:1015b8000000fa002023a8000000000000198000a5
:1015c800610060000000e000fcff32002003a90079
:1015d800001880000080fa00000006000200fa00ef
:1015e800000f78001e0078000000e00007003500ba
:1015f80070002000a10607001e0078007b06070087
:101608006000200092060700070037001e0fea005e
:1016180060002000990607001e0078007306070086
:10162800700020008a0607000080fa00000006000b
:101638000400fa00000f7800110798001e007800d7
:101648008000eb00f200200003002000820f500011
:10165800838f5800e1003e00006001000f00370052
:101668001b003700280037003400370041003700de
:101678004c00370058003700630037006f00370010
:101688007a00370086003700910037009d00370048
:10169800a9003700b6003700c20037002c43a80065
:1016a8001e009000004078007f4060000080fb0032
:1016b8007f0060000236800001fe2f00810061007b
:1016c8000100700000368800c802a900c400370075
:1016d8002c63a8001e009000004078007f40600046
:1016e8000080fb007f0060004800dd0002368000bb
:1016f800f10f2e00810061000100700000368800a3
:10170800c822a900b60037002c83a8001e0090004c
:10171800004078007f4060000080fb007f00600090
:101728001236800001fe2f00810061000100700068
:1017380010368800c842a900a90037002ca3a800c9
:101748001e009000004078007f4060000080fb0091
:101758007f0060004800dd0012368000f10f2e0087
:10176800810061000100700010368800c862a9007d
:101778009b0037001e009000004078007f4060000a
:101788000080fb007f0060002236800001fe2f00f1
:10179800810061000100700020368800c882a9001d
:1017a8008f0037001e009000004078007f406000e6
:1017b8000080fb007f0060004800dd0022368000ca
:1017c800f10f2e00810061000100700020368800b2
:1017d800c8a2a900820037001e00900000407800cf
:1017e8007f4060000080fb007f0060003236800090
:1017f80001fe2f0081006100010070003036880072
:10180800c8c2a900760037001e009000004078008a
:101818007f4060000080fb007f0060004800dd0022
:1018280032368000f10f2e00810061000100700047
:1018380030368800c8e2a900690037001e00900011
:10184800004078007f4060000080fb007f0060005f
:101858004236800001fe2f00810061000100700007
:1018680040368800c902a9005d0037001e009000bc
:10187800004078007f4060000080fb007f0060002f
:101888004800dd0042368000f10f2e008100610023
:101898000100700040368800c922a90050003700b6
:1018a8001e009000004078007f4060000080fb0030
:1018b8007f0060005236800001fe2f008100610029
:1018c8000100700050368800c942a9004400370062
:1018d8001e009000004078007f4060000080fb0000
:1018e8007f0060004800dd0052368000f10f2e00b6
:1018f800810061000100700050368800c962a900ab
:10190800370037002d83a8001e00900000407800a3
:101918007f4060000080fb007f006000623680002e
:1019280001fe2f0081006100010070006036880010
:10193800c982a9002a0037002d63a8001e00900064
:10194800004078007f4060000080fb007f0060005e
:101958004800dd0062368000f10f2e008100610032
:101968000100700060368800c9a2a9001c00370079
:101978002d43a8001e009000004078007f406000c2
:101988000080fb007f0060007236800001fe2f009f
:10199800810061000100700070368800c9c2a9008a
:1019a8000f0037002d23a8001e009000004078008b
:1019b8007f4060000080fb007f0060004800dd0081
:1019c80072368000f10f2e00810061000100700066
:1019d80070368800c9e2a900010037000000000045
:1019e8000080fa00000006000400fa00000f7800ea
:1019f800110798001e0090008000eb008201200073
:101a080003002000820f5000838f580037013e00ea
:101a18000060010018003700230037002d00370050
:101a280037003700420037004c00370057003700b6
:101a3800610037006c0037007600370081003700fe
:101a48008b00370095003700a0003700aa00370048
:101a5800b5003700bf003700ca003700d400370090
:101a6800de003700e9003700f3003700fd003700db
:101a780008013700120137001e0078000040780086
:101a88007f4060000080fb007f0060004800dd00b0
:101a980002348000f10f2e00810061000100700007
:101aa80000348800110137001e00780000407800db
:101ab8007f4060000080fb007f00600012348000df
:101ac80001fe2f00810061000100700010348800c1
:101ad800060137001e007800004078007f40600053
:101ae8000080fb007f0060003234800001fe2f0080
:101af800810061000100700030348800fb0037006d
:101b08001e007800004078007f4060000080fb00e5
:101b18007f0060004800dd0032348000f10f2e00a5
:101b2800810061000100700030348800ef00370048
:101b38001e007800004078007f4060000080fb00b5
:101b48007f0060004234800001fe2f0081006100a8
:101b58000100700040348800e40037001e0078005f
:101b6800004078007f4060000080fb007f0060003c
:101b78004800dd0042348000f10f2e008100610032
:101b88000100700040348800d80037001e0078003b
:101b9800004078007f4060000080fb007f0060000c
:101ba8007234800001fe2f00810061000100700086
:101bb80070348800cd0037001e007800004078009f
:101bc8007f4060000080fb007f0060004800dd006f
:101bd80072348000f10f2e00810061000100700056
:101be80070348800c10037001e007800004078007b
:101bf8007f4060000080fb007f006000a23480000e
:101c080001fe2f008100610001007000a0348800ef
:101c1800b60037001e007800004078007f40600062
:101c28000080fb007f0060004800dd00a2348000d7
:101c3800f10f2e008100610001007000a0348800bf
:101c4800aa0037001e007800004078007f4060003e
:101c58000080fb007f006000b234800001fe2f008e
:101c68008100610001007000b03488009f003700d7
:101c78001e007800004078007f4060000080fb0074
:101c88007f0060002235800001fe2f008100610086
:101c98000100700020358800940037001e0078008d
:101ca800004078007f4060000080fb007f006000fb
:101cb8004800dd0022358000f10f2e008100610010
:101cc8000100700020358800880037001e00780069
:101cd800004078007f4060000080fb007f006000cb
:101ce8003235800001fe2f00810061000100700084
:101cf800303588007d0037001e00780000407800ed
:101d08007f4060000080fb007f0060004800dd002d
:101d180032358000f10f2e00810061000100700053
:101d280030358800710037001e00780000407800c8
:101d38007f4060000080fb007f006000423580002b
:101d480001fe2f008100610001007000403588000d
:101d5800660037001e007800004078007f40600071
:101d68000080fb007f0060004800dd0042358000f5
:101d7800f10f2e00810061000100700040358800dd
:101d88005a0037001e007800004078007f4060004d
:101d98000080fb007f0060005235800001fe2f00ac
:101da8008100610001007000503588004f00370045
:101db8001e007800004078007f4060000080fb0033
:101dc8007f0060006235800001fe2f008100610005
:101dd8000100700060358800440037001e0078005c
:101de800004078007f4060000080fb007f006000ba
:101df8004800dd0062358000f10f2e00810061008f
:101e08000100700060358800380037001e00780037
:101e1800004078007f4060000080fb007f00600089
:101e28007235800001fe2f00810061000100700002
:101e3800703588002d0037001e00780000407800bb
:101e48007f4060000080fb007f00600082358000da
:101e580001fe2f00810061000100700080358800bc
:101e6800220037001e007800004078007f406000a4
:101e78000080fb007f0060004800dd0082358000a4
:101e8800f10f2e008100610001007000803588008c
:101e9800160037001e007800004078007f40600080
:101ea8000080fb007f0060009235800001fe2f005b
:101eb8008100610001007000903588000b00370038
:101ec8001e007800004078007f4060000080fb0022
:101ed8007f006000a235800001fe2f0081006100b4
:101ee80001007000a0358800000000000080fa00a2
:101ef800000006000400fa00000f7800110798009f
:101f08001e0078008000eb00f20020000300200093
:101f1800820f5000838f580039003e000060010096
:101f28000f00370011003700130037001500370085
:101f38001700370018003700190037001a0037005b
:101f48001b0037001c0037001d0037001e0037003b
:101f58001f00370021003700230037002500370015
:101f68002c43a800c802a800260037002c63a8004c
:101f7800c822a800230037002c83a800c842a80064
:101f8800200037002ca3a800c862a8001d00370055
:101f9800c882a8001b003700c8a2a8001900370093
:101fa800c8c2a80017003700c8e2a800150037000b
:101fb800c902a80013003700c922a8001100370081
:101fc800c942a8000f003700c962a8000d003700f9
:101fd8002d83a800c982a8000a0037002d63a80035
:101fe800c9a2a800070037002d43a800c9c2a8004d
:101ff800040037002d23a800c9e2a800010037001b
:10200800000000009e0090001e00780076fe070089
:102018000080fa00000006000e00fa00000f7800a9
:102028001107980022079800330798004407980082
:1020380055079800660798002e0090000000e00001
:1020480004003d009e009000f0e72f000080600033
:10205800100798001e0090007c006000fc0f5000e4
:1020680008003a001e00900063006000e30f500073
:1020780004003a009e009000e0ff2f0000806000fe
:10208800100798009e009000000220000080600069
:102098000000e00009003a009e00900000202000a7
:1020a800008060000000e000040032009e00900004
:1020b800f0df2f0000806000100798009e0090005d
:1020c80011128800ae009000211288009e0078004e
:1020d80001128800111280000002200000806000b8
:1020e8000000e000230032001112800000002100ef
:1020f800008060000000e0000a003a00de00900066
:1021080000022000808f50000600320001012000ec
:102118005e00900077ff0700810020005e009000bd
:1021280043fd07001112800000802000008060003d
:102138000000e00007003a00be0090000002200006
:10214800808f500003003200710020003e00900094
:1021580037fd0700ee00900000022000808f50003d
:102168001a0032008000eb006e00900030fd07007e
:10217800160037001112800000082000008060005f
:102188000000e00007003200ee009000000220008e
:10219800808f500003003200110120006e00900073
:1021a80054ff0700010120005e00900051ff070066
:1021b800be00900000022000808f50000300320013
:1021c800710020003e00900019fd0700f10020007a
:1021d8004e00900047ff07000080fa00000006004c
:1021e8000200fa00000f78000000000000128000d2
:1021f800620060000000e000fcff3a008540a90092
:1022080040c2a9009e00780041128800000000002a
:1022180000128000610060000000e000fcff320056
:10222800401280000080fa00000006000600fa0054
:10223800004f780011079800220798009e00900030
:102248002e009000d6000700090037002e009000ed
:10225800f60007000004e000050032001e80fb00c5
:10226800dfff07009e0090002e009000cc000700c2
:1022780011c0b30010002000df0407000004a20012
:102288000004e000f1ff3a000080fa0000000600b8
:102298000400fa00000f7800110798009e007800eb
:1022a8001e009000be000700000000001e00900005
:1022b800de0007000004a2000004e000fbff3a0073
:1022c8000080fa00000006000c00fa0020079800c1
:1022d8003107980042079800530798002e00900095
:1022e800150407000004a2000004e00032003200d8
:1022f80000022000baff07003e019000ce009000c7
:1023080000c2b300c9ff07001e003700000e2000fe
:10231800b3ff0700004f7800be0090005e009000f9
:10232800dbff070000c3b3009e40780080cf500059
:102338001e003200000e2000a9ff07001047980079
:10234800be0090005e009000d1ff07009e40900004
:1023580000c3b30080cf5000160032000e80e800a2
:102368001e4190009e407800f30407000004e0003e
:1023780004003a002e409000804078002e00900023
:10238800fa0307002e009000d80307000000e000c1
:10239800deff3a000003200091ff0700be00900016
:1023a8005e009000baff070003003700000000003d
:1023b80001003700000000000080fa00000006005d
:1023c8000e00fa003007980041079800520798005d
:1023d800630798003e009000be0307000000e0007d
:1023e80033003200000120007dff07004e019000fd
:1023f800de00900000c1b3008cff07003e00900093
:1024080025040700000f78001e007800e10f400047
:1024180006003a000003200071ff0700ce0090007c
:102428006e0090009aff0700210037001e00780018
:102438000040780065014700e4004700a104070058
:102448004e4090000080fb0065ff07002047980081
:10245800ce0090006e0090008dff0700ae40900007
:1024680000c3b30080cf50000e0032005e409000e1
:102478000080fb005aff070030479800ce0090000c
:102488006e00900082ff0700be40900000c3b300ba
:1024980080cf5000050032003e009000da030700ac
:1024a800d6ff3700000000000100370000000000e0
:1024b8000080fa00000006000400fa00000f78000f
:1024c8001107980005e1a900000420001e00600023
:1024d8000000e00004003200d0ff2f001e00600062
:1024e80020088800020037009e0078002108880034
:1024f8009e009000110888000021ef008460a90068
:102508000080fa00000006000400fa00000f7800be
:102518001107980011e1a900000420001e006000c6
:102528000000e00004003200d0ff2f001e00600011
:1025380080088800020037009e0078008108880023
:102548009e009000610888000621ef000080fa00d4
:10255800000006000400fa00000f78001107980038
:1025680013e1a900000420001e0060000000e00044
:1025780004003200d0ff2f001e0060009008880081
:10258800020037009e007800910888009e009000a5
:10259800710888000a21ef000080fa000000060098
:1025a8000400fa00000f7800110798001e00780058
:1025b800e10f50000c003200e10f50000500390017
:1025c800e20f50000d003200e30f500010003200ff
:1025d800140037009e009000110888000021ef00c9
:1025e8008460a9000f0037009e00900061088800f1
:1025f8000621ef0084e0a9000a0037009e00900041
:10260800710888000a21ef008500a900050037003d
:102618009e009000d10888001421ef008760a9006f
:10262800000000000080fa00000006000200fa0026
:10263800000f78001e007800e10f500011003200f2
:10264800e10f500005003900e20f5000170032007a
:10265800e30f50001f0032002800370020048000dc
:102668004300de00614060000080fb0000f0a7002e
:102678000000ea000000ea004f00de000040780099
:102688001f003700200480004700de006140600022
:102698000080fb0000f0a7000000ea000000ea004c
:1026a8004f00de000040780015003700200480004d
:1026b8004800de00614060000080fb0000f0a700d9
:1026c8000000ea000000ea004f00de000040780049
:1026d8000b003700300480004b00de0061406000d2
:1026e8000080fb0000f0a7000000ea000000ea00fc
:1026f8004f00de0000407800010037000040eb008a
:102708000080fa00000006000400fa00000f7800bc
:10271800214798002e409000e74f500002003600f5
:1027280070c0b300204798001e007800e10f5000e9
:1027380014003200e10f500005003900e20f50008c
:102748001d003200e30f500027003200330037002d
:102758002e409000674060000080fb00670060002a
:102768004c00dd0022058000f1ff28008100610097
:1027780001007000200588009460a8008460a9000a
:10278800260037002e409000674060000080fb0064
:10279800670060004c00dd0032058000f1ff280072
:1027a80081006100010070003005880094e0a800f5
:1027b80084e0a900190037002e40900067406000af
:1027c8000080fb00670060004205800081ff2f0049
:1027d8008100610001007000400588009500a80094
:1027e8008500a9000d0037002e409000674060006a
:1027f8000080fb00670060004c00dd00820580005f
:10280800f1ff280081006100010070008005880048
:102818009760a8008760a900000000000080fa0007
:10282800000006000200fa00000f78001e00780081
:10283800e10f500009003200e10f50000500390097
:10284800e20f500007003200e30f5000070032008b
:10285800080037008460a9000600370084e0a9005a
:10286800040037008500a900020037008760a9002e
:10287800000000000080fa00000006000e00fa00c8
:10288800000f780011079800220798003307980076
:102898004407980055079800660798003100200003
:1028a8003e00900062fb0700410020006e0090008f
:1028b8005ffb0700b10020004e0090008dfd07006f
:1028c800c10020005e0090008afd07009e0078008d
:1028d800011188009e00900011118800ae00900040
:1028e800411188000080fa00000006000400fa0088
:1028f80001118000010f7800111180001107980064
:1029080021e2a90021e2a8009e00780001118800b8
:102918009e009000111188000080fa000000060057
:102928000200fa00004f780000000000111180003a
:1029380000202000008060000000e000fbff3a005b
:102948001e80fb00201188000080fa0000000600ad
:102958000200fa0010118000620060000000e00030
:1029680008003a0010118000640060000000e000d8
:1029780004003a0010118000680060000000e000c8
:1029880014003200101180000000d1006140600086
:102998000080fb00c300dd00101180004200de0053
:1029a800614060000080fb004200dd008100700093
:1029b800101180004300de00614060000080fb00d1
:1029c80000004000008f70001e0fea001e00780013
:1029d8000700370010118000610060000000e0006f
:1029e8000200320030118000010037000080eb0047
:1029f8000080fa00000006000e00fa00000f7800c0
:102a08001107980022079800330798004407980098
:102a18005507980066079800510020003e00900076
:102a280003fb0700610020006e00900000fb070018
:102a3800d10020004e0090002efd0700e10020008c
:102a48005e0090002bfd07009e0078008111880031
:102a58009e00900091118800ae009000c11188007e
:102a68000080fa00000006000400fa0081118000ce
:102a7800010f7800911180001107980031e2a90038
:102a880031e2a8009e007800811188009e00900025
:102a9800911188000080fa00000006000200fa0088
:102aa800004f7800000000009111800000202000f5
:102ab800008060000000e000fbff3a001e80fb0081
:102ac800a01188000080fa00000006000200fa0049
:102ad80090118000620060000000e00008003a00e9
:102ae80090118000640060000000e00004003a00db
:102af80090118000680060000000e00014003200bf
:102b0800901180000000d100614060000080fb004f
:102b1800c300dd00901180004200de0061406000cb
:102b28000080fb004200dd008100700090118000f1
:102b38004300de00614060000080fb0000004000b0
:102b4800008f70001e0fea001e0078000700370093
:102b580090118000610060000000e0000200320077
:102b6800b0118000010037000080eb000080fa00ff
:102b7800000006001200fa0010079800414798006c
:102b88003207980043079800540798006507980093
:102b980076079800070f9800de0090000140880033
:102ba800ee00900011408800fe009000214088004f
:102bb8008e0890003140880000408000014080006d
:102bc80011017800114080008280700001087800af
:102bd80000002800000f78004e4090000004e0003c
:102be8000200320080002000010037000000eb00e6
:102bf8001e0f700006022000050220004e02900001
:102c0800be0190001e019000014021001e007800c6
:102c18001aff07000080fa00000006000600fa000c
:102c2800200798000000eb00000f78002e009000ad
:102c3800f501070010079800070037001e009000f4
:102c48000040780036ff07002e009000ee010700d4
:102c5800100798001e0fe8001e009000e10f4000ca
:102c6800f6ff3a001e0078000080fa000000060017
:102c78000800fa0020079800310798002e009000fd
:102c8800ad0107000004a2000004e0006500320066
:102c98002fff0700000f7800070037001e0078009c
:102ca80000407800804078002e009000af010700b7
:102cb80027ff0700000f78001e0078000000e000e2
:102cc800f6ff3d001e007800e10f40004b00350084
:102cd8000868ef0000408000014080001101780082
:102ce800114080008180ea008100610001087800bd
:102cf8003e0090000000e000300032000040eb0091
:102d0800204798001100370011ff0700000f7800d6
:102d18001e0078000000e000060035001e00780064
:102d280000407800804078002e0090008f01070056
:102d3800030037001e007800e10f40003100350025
:102d48003e00900000000100204798002e009000ef
:102d5800660107000000e000210032002e409000cc
:102d68000004a2000004e0001d00320008c8bf00f3
:102d78000004a2000004e000e3ff3a001800370056
:102d8800f3fe0700000f78001e0078000000e00046
:102d9800060035001e00780000407800804078006a
:102da8002e00900071010700050037001e00780012
:102db800e10f400015003500010037000000000059
:102dc8002e009000490107000000e00004003200d6
:102dd80008c8bf000004a2000004e000e8ff3a00b1
:102de80000408000014080001101780011408000ff
:102df80082807000010878000b0037000000000096
:102e08000300370000000000010037000000000048
:102e1800b6fe070060c7b300c1fe0700000000004f
:102e280001003700000000000080fa0000000600e2
:102e38000000fa0000408000014080001101780085
:102e480011408000828070000108780010c0b30033
:102e580008e8b7000080fa00000006000800fa0041
:102e68001007980021079800624798007347980058
:102e7800ae00900000022000808f50000300320056
:102e8800210120002e009000e9f907001e009000a3
:102e9800e20f50000b003a00900880004f00de005f
:102ea800004078000080fb0000f0a7000000ea0066
:102eb8000000ea004f00de00004f780013e1a9008f
:102ec8000a003700800880004f00de0000407800cc
:102ed8000080fb0000f0a7000000ea000000ea0004
:102ee8004f00de00004f780011e1a900200c80009f
:102ef8000000a1000010a1000020a100200c880003
:102f08001e0090000010a20000f0a7000000ea00d8
:102f18000000e9004f00de00004078000080fb0060
:102f2800610060004300dd00220c800071ff2f006b
:102f38008100610001007000200c88006e40900044
:102f48000080fb00610060004d00dd00220c800065
:102f5800f1ff2d008100610001007000200c880045
:102f68008221ef008021ef007e4090000004e00005
:102f78000200320070c0b3000100370060c0b30027
:102f88000080fb0067006000220c800081ff2f009a
:102f98008100610001007000200c88001e00900074
:102fa800e20f500008003a001e80fb004f00dd00d1
:102fb80092088000f1ff2700810061000100700085
:102fc80090088800070037001e80fb004f00dd00d6
:102fd80082088000f1ff2700810061000100700075
:102fe800800888000080fa00000006000200fa004d
:102ff800000f78009e007800010c88000080fa001d
:10300800000006000400fa00000f7800110798007d
:10301800000220009e007800808f500003003200dc
:103028008000eb001e00780081f907009e009000e8
:1030380000022000808f5000030032002101200090
:103048001e0090007af907000080fa0000000600d0
:103058000200fa00000f7800000220009e007800ad
:10306800808f500003003200210120001e007800ec
:103078006ff907000080fa00000006000200fa005d
:10308800000f7800000220009e007800808f50001a
:10309800030032008000eb001e00780064f907008e
:1030a8000080fa00000006001000fa00000f780007
:1030b80011079800220798003307980044079800e2
:1030c80055079800464f9800770798009e007800ab
:1030d800113a8800ce48900010c2b30080cf50004b
:1030e80003003e004e489000e14f500003003e00b0
:1030f8000040eb00404f9800030037004e48900016
:1031080000c0e900404f98009e009000213a8800d6
:103118003e00900000407800674060000080fb009f
:10312800670060004c00dd00223a8000f1ff2800b3
:103138008100610001007000203a88005e00900064
:1031480000407800634060000080fb00630060007e
:103158004600dd00223a8000f1f32f008100610073
:1031680001007000203a88004e4890007f406000bf
:103178000080fb007f006000223a800001fe2f00e3
:103188008100610001007000203a8800fe00900074
:1031980010202000808f500003003e007e00900029
:1031a800e10f500003003e000000eb00700798009c
:1031b800030037007e0090000080e9007007980047
:1031c800fe009000313a8800eef09700f0c3b3009b
:1031d80080cf5000020036000040eb0060f79f00ef
:1031e8006ef097000080fb00403a8800ae00900027
:1031f800513a88004eb8970000407800614060005e
:103208000080fb00610060004700dd00523a80004a
:10321800f1f72f008100610001007000503a88002a
:103228000080fa00000006000400fa002047980019
:10323800103a80004300de00614060000080fb001f
:1032480000f0a7000000ea000000ea004f00de00de
:10325800004f78002e4090000004e000010032008a
:103268004267a9001e4078000080fa0000000600ae
:103278000200fa00004f78001e80fb006100600029
:1032880000004000123a8000d1ff2f008100610049
:1032980001007000103a88000080fa000000060063
:1032a8000200fa00004f78004207a8001e4078008c
:1032b8000004e0000500320000000000103a800021
:1032c800610060000000e000fcff3a000080fa00a6
:1032d800000006000200fa00000f78001e007800c7
:1032e800100090000080fa00000006000200fa00ba
:1032f800000f78001e0078001000900001022000e6
:10330800008050000080fa00000006000200fa0069
:10331800000f78001e0078001000900000f0a70051
:103328000000ea000000e9004f00de0000407800dd
:103338000080fa00000006000200fa00000f780082
:103348001e007800900090000002200000806800b5
:1033580000f0a7000000ea000000e9004f00de00ce
:10336800004078000080fa00000006000600fa001d
:1033780010079800414798001e00900090009000a8
:1033880000022000808f500002003a000040eb004d
:103398001b0037001e009000100078008040780065
:1033a8001e009000100090000040780000c040000f
:1033b8007f4f60001e80fb009e0090000080400050
:1033c800ce409000414098001e00900010009000f0
:1033d8008000e8001e009000110098001e00900078
:1033e80090009000000220000080680000f0a70014
:1033f8000000ea000000e9004f00de00004078000d
:103408000080fa00000006000400fa001007980087
:103418001e009000100090000000e00002003a003a
:103428000080eb00130037001e00900010007800a9
:103438009e00900064004000614078000080fb001e
:10344800000f78001e009000100078000000e800cf
:10345800ff0060001e009000010878001e00900028
:10346800100090008000e9001e00900011009800f4
:103478001e0078000080fa00000006000200fa0032
:10348800000f78001e0078008000eb001100980003
:103498000080fa00000006000400fa0010079800f7
:1034a8001e009000100090000000e00002003a00aa
:1034b8000080eb00080037001e0090001000780024
:1034c8009e00900064004000614078000080fb008e
:1034d800000f78001e0078000080fa000000060047
:1034e8000600fa00000f78001107980022079800dc
:1034f8001e007800e10f500015003200e10f500067
:1035080003003900e20f5000250032003800370070
:103518001e0090000000a20000f0a7000000ea00d2
:103528000000e9004f00de00004078000080fb004a
:103538006100600012048000e1ff2f00810061003b
:1035480001007000100488008400a90028003700da
:103558008000eb002e00900066fa07001e00900025
:103568000000a20000f0a7000000ea000000e90047
:103578004f00de00004078000080fb006100600022
:103588000000400012048000d1ff2f00810061007c
:1035980001007000100488008680a900140037001c
:1035a800110020002e00900052fa07001e00900023
:1035b8000000a20000f0a7000000ea000000e900f7
:1035c8004f00de00004078000080fb0061006000d2
:1035d8004200dd0012048000b1ff2f00810061006d
:1035e800010070001004880087a0a90000000000f6
:1035f8000080fa00000006000400fa00000f7800be
:10360800214798001e007800e10f50001100320099
:10361800e10f500003003900e20f5000190032009a
:103628002500370020048000610060000000e000f1
:10363800060032002e4090000004e0000100320035
:103648008400a90010c0b3001c0037000040eb0044
:103658001a00370030048000700060000000e000ad
:10366800060032002e4090000004e0000100320005
:103678008680a90010c0b300100037000040eb009e
:103688000e00370031048000000022000080600036
:103698000000e000060032002e4090000004e00028
:1036a8000100320087a0a90010c0b3000300370052
:1036b8000040eb00010037000040eb000080fa00fa
:1036c800000006000600fa00004f78001107980075
:1036d800220798001e00900001cab3000148780034
:1036e8002e00900001cab300014878001e00900027
:1036f800904078001e80fb004400de000040780007
:1037080080c070001e009000014878002e009000d4
:1037180010407800804078001e4078006f406000bc
:1037280000c07000804078002e00900001487800aa
:103738000080fa00000006000400fa00000f78007c
:1037480021479800324798002e4090008080fb0067
:10375800000f200080806000000a2000808f500049
:103768000200320000c0eb00140037003e40900019
:103778008080fb00000f200080806000000a20008d
:10378800808f500002003200e0cfb3000b003700fa
:103798002e4090000080fb004400dd00804078004f
:1037a8003e4090006f40600000c07000804078008c
:1037b8001e007800014878000040eb000080fa0005
:1037c800000006000000fa002c83a8002ca3a80023
:1037d800cc42a900cc62a900cc82a900cca2a90045
:1037e800c842a900c862a900c882a900c8a2a90045
:1037f8000080fa00000006000000fa000cc8bf00b4
:103808000040e8000ce8b7000cc8bf006740600043
:103818000ce8b7006116800030fc2f008080600043
:103828000cc8bf000080fb00e280200062407800e6
:103838000080fb004200dd00010070006016880077
:103848000080fa00000006000000fa000cc8bf0063
:103858000040e9000ce8b7000cc8bf0067406000f2
:103868000ce8b7006116800030fc2f0080806000f3
:103878000cc8bf000080fb00e28020006240780096
:103888000080fb004200dd00010070006016880027
:103898000080fa00000006000000fa0061168000af
:1038a80030fc2f0000806000601688000080fa005d
:0438b8000000060006
:020000040000fa
:1038bc000a080000020000000000000000080000e0
:1038cc000a000000000000000e08000008000000c4
:1038dc00020000000103020006040c0008090000ad
:1038ec000c080000020000000000000000000000b6
:020000040000fa
:0200000401f009
:04000000cf0000002d
:020000040000fa
:0200000401f009
:04000400cf00000029
:020000040000fa
:0200000401f009
:0400080007000000ed
:020000040000fa
:0200000401f009
:04000c00810000006f
:020000040000fa
:0200000401f009
:04001000a300000049
:020000040000fa
:0200000401f009
:040014005f00000089
:020000040000fa
:0200000401f009
:04001800f7000000ed
:020000040000fa
:0200000401f009
:04001c00dfff000002
:00000001FF
