:020000040000fa
:080000000002040000000000f2
:020000040000fa
:100008009a0200009a0200009a0200009a02000078
:100018009a0200009a0200009a0200009a02000068
:100028009a0200009a0200009a0200009a02000058
:100038009a0200009a0200009a0200009a02000048
:10004800800a00009a0200009a0200009a0200004a
:100058009a0200009a0200009a0200009a02000028
:100068009a0200009a0200009a0200009a02000018
:100078009a0200009a0200009a0200009a02000008
:100088009a0200009a0200009a0200009a020000f8
:100098009a0200009a0200009a0200009a020000e8
:1000a8009a0200009a0200009a0200009a020000d8
:1000b8009a0200009a0200009a0200009a020000c8
:1000c8009a0200009a0200009a0200009a020000b8
:1000d8009a0200009a0200009a0200009a020000a8
:1000e8009a0200009a0200009a0200009a02000098
:1000f8009a0200009a0200009a0200009a02000088
:100108009a0200009a0200009a0200009a02000077
:100118009a0200009a0200009a0200009a02000067
:100128009a0200009a0200009a0200009a02000057
:100138009a0200009a0200009a0200009a02000047
:100148009a0200009a0200009a0200009a02000037
:100158009a0200009a0200009a0200009a02000027
:100168009a0200009a0200009a0200009a02000017
:100178009a0200009a0200009a0200009a02000007
:100188009a0200009a0200009a0200009a020000f7
:100198009a0200009a0200009a0200009a020000e7
:1001a8009a0200009a0200009a0200009a020000d7
:1001b8009a0200009a0200009a0200009a020000c7
:1001c8009a0200009a0200009a0200009a020000b7
:1001d8009a0200009a0200009a0200009a020000a7
:1001e8009a0200009a0200009a0200009a02000097
:0801f8009a0200009a020000c7
:020000040000fa
:100208009a0200009a0200009a0200009a02000076
:100218009a0200009a0200009a0200009a02000066
:100228009a0200009a0200009a0200009a02000056
:100238009a0200009a0200009a0200009a02000046
:10024800800a00009a0200009a0200009a02000048
:100258009a0200009a0200009a0200009a02000026
:100268009a0200009a0200009a0200009a02000016
:100278009a0200009a0200009a0200009a02000006
:100288009a0200009a0200009a0200009a020000f6
:100298009a0200009a0200009a0200009a020000e6
:1002a8009a0200009a0200009a0200009a020000d6
:1002b8009a0200009a0200009a0200009a020000c6
:1002c8009a0200009a0200009a0200009a020000b6
:1002d8009a0200009a0200009a0200009a020000a6
:1002e8009a0200009a0200009a0200009a02000096
:1002f8009a0200009a0200009a0200009a02000086
:100308009a0200009a0200009a0200009a02000075
:100318009a0200009a0200009a0200009a02000065
:100328009a0200009a0200009a0200009a02000055
:100338009a0200009a0200009a0200009a02000045
:100348009a0200009a0200009a0200009a02000035
:100358009a0200009a0200009a0200009a02000025
:100368009a0200009a0200009a0200009a02000015
:100378009a0200009a0200009a0200009a02000005
:100388009a0200009a0200009a0200009a020000f5
:100398009a0200009a0200009a0200009a020000e5
:1003a8009a0200009a0200009a0200009a020000d5
:1003b8009a0200009a0200009a0200009a020000c5
:1003c8009a0200009a0200009a0200009a020000b5
:1003d8009a0200009a0200009a0200009a020000a5
:1003e8009a0200009a0200009a0200009a02000095
:0803f8009a0200009a020000c5
:020000040000fa
:10040000ef8020000e7f24000e0188000000000015
:10041000100020000000e000020032000001200077
:10042000200288000c000700804b21000100200002
:1004300011000700000020000000e0000200320070
:100440000000020000000000b609020000000000e9
:100450000040da000000fe004440a9000000200037
:100460000000e0000300320000002000a00188002e
:100470004440a80000000600910188008000780038
:100480000000eb0015003700e280400032a0b4000d
:100490009101ba00e280400032a0b4009102ba009b
:1004a000e280400032a0b4000002eb00472bde00e7
:1004b000f507b200602ce10004003a000059eb009f
:1004c0008301e900fdff3e00040037006128e100e0
:1004d000010032000082eb00040007001101ba00a5
:1004e0000200e000e8ff3a00000006003159ba00bf
:1004f0008301e9000c0032002159ba008301e900b0
:10050000080032000400e00003003a00e2804000ee
:1005100032a0b400f5ff370011d9ba008301e90019
:10052000faff3a008100e800e180400032a0b40008
:10053000000006000040da000000fe0003f0a20008
:10054000889fbe008a9fbe008c1f78007f00070036
:10055000860033006450e1004f0032006420e10067
:100560005200320003826c0007003b000905d000f6
:100570000306d000820f54000c065d000200390013
:100580000200320089017800030678008582550058
:1005900004003d000003fd008103fd008502ea0028
:1005a0008b854200840f720002003b006000100047
:1005b000e08018006011b8000005eb007a28e10027
:1005c0000a00390006007800c75ddd00f707b200b9
:1005d000878075002d003700828171000a01780044
:1005e000610560008180d1000080d3008502e900b0
:1005f000f9ff3b00060440008784480002003b00ee
:1006000060041400e0841c000988a3000700320085
:100610008a81710082817100610164008904d100c6
:100620000884d3008b05e800170037000978a30081
:1006300013003a000b00e000130034008b05e900c2
:100640000804440089844c000a4474000978a3001b
:100650000d003a000b00e000070034008b05e900b4
:100660000804440089844c0001003a000b0020007b
:100670000978a300f7ff32000001eb000200370009
:10068000828171000a0178000a0007000cf0a700bf
:1006900001f0a0003e0037006420e10002003a00b3
:1006a000838f6c003e0033000801be000200be00d4
:1006b0003700370081002000618055000b003d00ad
:1006c0000b00200061fe2f000100e1001d0034003e
:1006d00082817100610164008904d1000884d30023
:1006e0000000e800faff3a00710020006100640099
:1006f0000300700002006000090032006104440041
:10070000e0844c000988a500050032008b05e80054
:100710006808e10002003a008904d1000884d3008f
:10072000f20f20000258e10005003d00c75ddd002a
:10073000f907b20089807500080078000000060003
:100740000bf827008b007800000005000004be00b5
:100750004a0007000003be000405be000200be0000
:1007600046000700844f7500000006000200be002e
:100770006450e100050036006420e100020036000c
:100780000968a30001003a000800be000160a00053
:100790004f0678004f05be004f04be000000060063
:1007a000f0ff2f00f1ff2700f9ff3700889fbe0000
:1007b0008a9fbe008c1f7800e4ff0700ebff330028
:1007c00003866c006450e100240032006420e100e4
:1007d000270032006150e100220032006120e10078
:1007e000210032008b854200eb07b1000134b800d4
:1007f000003ab8000804420089844a00013ab8006f
:100800000030b8008880400009014a00040033002d
:100810000000400081804800020149008b05e9008a
:10082000c909dd00830170000100320013002000bf
:10083000c814de004814dd004709de001200b200d3
:10084000c808de00088470009aff070001f0a100cc
:100850000cf0a70001f0a000cdff37006120e100ff
:10086000cfff32000801be000200be00f7ff3700d4
:100870006150e100fcff3a00c9ff3700c70ade0003
:10088000f107b200f50fb20008003200e1cf4200dc
:10089000020032000170a00024000500810f7000ea
:1008a000010032000408050044000500810f7000bb
:1008b00002003a00140005008502e9000000400033
:1008c00081c04800fcff3b000170a000240005002f
:020000040000fa
:1008d0000400fa00000f7800110798001e0078004d
:1008e0008000eb00f200200003002000820f500087
:1008f000838f5800e1003e00006001000f003700c8
:100900001b00370028003700340037004100370053
:100910004c00370058003700630037006f00370085
:100920007a00370086003700910037009d003700bd
:10093000a9003700b6003700c20037002c43a800da
:100940001e009000004078007f4060000080fb00a7
:100950007f0060000236800001fe2f0081006100f0
:100960000100700000368800c802a900c4003700ea
:100970002c63a8001e009000004078007f406000bb
:100980000080fb007f0060004800dd000236800030
:10099000f10f2e0081006100010070000036880018
:1009a000c822a900b60037002c83a8001e009000c2
:1009b000004078007f4060000080fb007f00600006
:1009c0001236800001fe2f008100610001007000de
:1009d00010368800c842a900a90037002ca3a8003f
:1009e0001e009000004078007f4060000080fb0007
:1009f0007f0060004800dd0012368000f10f2e00fd
:100a0000810061000100700010368800c862a900f2
:100a10009b0037001e009000004078007f4060007f
:100a20000080fb007f0060002236800001fe2f0066
:100a3000810061000100700020368800c882a90092
:100a40008f0037001e009000004078007f4060005b
:100a50000080fb007f0060004800dd00223680003f
:100a6000f10f2e0081006100010070002036880027
:100a7000c8a2a900820037001e0090000040780044
:100a80007f4060000080fb007f0060003236800005
:100a900001fe2f00810061000100700030368800e7
:100aa000c8c2a900760037001e0090000040780000
:100ab0007f4060000080fb007f0060004800dd0098
:100ac00032368000f10f2e008100610001007000bd
:100ad00030368800c8e2a900690037001e00900087
:100ae000004078007f4060000080fb007f006000d5
:100af0004236800001fe2f0081006100010070007d
:100b000040368800c902a9005d0037001e00900031
:100b1000004078007f4060000080fb007f006000a4
:100b20004800dd0042368000f10f2e008100610098
:100b30000100700040368800c922a900500037002b
:100b40001e009000004078007f4060000080fb00a5
:100b50007f0060005236800001fe2f00810061009e
:100b60000100700050368800c942a90044003700d7
:100b70001e009000004078007f4060000080fb0075
:100b80007f0060004800dd0052368000f10f2e002b
:100b9000810061000100700050368800c962a90020
:100ba000370037002d83a8001e0090000040780019
:100bb0007f4060000080fb007f00600062368000a4
:100bc00001fe2f0081006100010070006036880086
:100bd000c982a9002a0037002d63a8001e009000da
:100be000004078007f4060000080fb007f006000d4
:100bf0004800dd0062368000f10f2e0081006100a8
:100c00000100700060368800c9a2a9001c003700ee
:100c10002d43a8001e009000004078007f40600037
:100c20000080fb007f0060007236800001fe2f0014
:100c3000810061000100700070368800c9c2a900ff
:100c40000f0037002d23a8001e0090000040780000
:100c50007f4060000080fb007f0060004800dd00f6
:100c600072368000f10f2e008100610001007000db
:100c700070368800c9e2a9000100370000000000ba
:100c80000080fa00000006000400fa00000f78005f
:100c9000110798001e0090008000eb0082012000e8
:100ca00003002000820f5000838f580037013e0060
:100cb0000060010018003700230037002d003700c6
:100cc00037003700420037004c003700570037002c
:100cd000610037006c003700760037008100370074
:100ce0008b00370095003700a0003700aa003700be
:100cf000b5003700bf003700ca003700d400370006
:100d0000de003700e9003700f3003700fd00370050
:100d100008013700120137001e00780000407800fb
:100d20007f4060000080fb007f0060004800dd0025
:100d300002348000f10f2e0081006100010070007c
:100d400000348800110137001e0078000040780050
:100d50007f4060000080fb007f0060001234800054
:100d600001fe2f0081006100010070001034880036
:100d7000060137001e007800004078007f406000c8
:100d80000080fb007f0060003234800001fe2f00f5
:100d9000810061000100700030348800fb003700e2
:100da0001e007800004078007f4060000080fb005b
:100db0007f0060004800dd0032348000f10f2e001b
:100dc000810061000100700030348800ef003700be
:100dd0001e007800004078007f4060000080fb002b
:100de0007f0060004234800001fe2f00810061001e
:100df0000100700040348800e40037001e007800d5
:100e0000004078007f4060000080fb007f006000b1
:100e10004800dd0042348000f10f2e0081006100a7
:100e20000100700040348800d80037001e007800b0
:100e3000004078007f4060000080fb007f00600081
:100e40007234800001fe2f008100610001007000fb
:100e500070348800cd0037001e0078000040780014
:100e60007f4060000080fb007f0060004800dd00e4
:100e700072348000f10f2e008100610001007000cb
:100e800070348800c10037001e00780000407800f0
:100e90007f4060000080fb007f006000a234800083
:100ea00001fe2f008100610001007000a034880065
:100eb000b60037001e007800004078007f406000d8
:100ec0000080fb007f0060004800dd00a23480004d
:100ed000f10f2e008100610001007000a034880035
:100ee000aa0037001e007800004078007f406000b4
:100ef0000080fb007f006000b234800001fe2f0004
:100f00008100610001007000b03488009f0037004c
:100f10001e007800004078007f4060000080fb00e9
:100f20007f0060002235800001fe2f0081006100fb
:100f30000100700020358800940037001e00780002
:100f4000004078007f4060000080fb007f00600070
:100f50004800dd0022358000f10f2e008100610085
:100f60000100700020358800880037001e007800de
:100f7000004078007f4060000080fb007f00600040
:100f80003235800001fe2f008100610001007000f9
:100f9000303588007d0037001e0078000040780062
:100fa0007f4060000080fb007f0060004800dd00a3
:100fb00032358000f10f2e008100610001007000c9
:100fc00030358800710037001e007800004078003e
:100fd0007f4060000080fb007f00600042358000a1
:100fe00001fe2f0081006100010070004035880083
:100ff000660037001e007800004078007f406000e7
:101000000080fb007f0060004800dd00423580006a
:10101000f10f2e0081006100010070004035880052
:101020005a0037001e007800004078007f406000c2
:101030000080fb007f0060005235800001fe2f0021
:101040008100610001007000503588004f003700ba
:101050001e007800004078007f4060000080fb00a8
:101060007f0060006235800001fe2f00810061007a
:101070000100700060358800440037001e007800d1
:10108000004078007f4060000080fb007f0060002f
:101090004800dd0062358000f10f2e008100610004
:1010a0000100700060358800380037001e007800ad
:1010b000004078007f4060000080fb007f006000ff
:1010c0007235800001fe2f00810061000100700078
:1010d000703588002d0037001e0078000040780031
:1010e0007f4060000080fb007f0060008235800050
:1010f00001fe2f0081006100010070008035880032
:10110000220037001e007800004078007f40600019
:101110000080fb007f0060004800dd008235800019
:10112000f10f2e0081006100010070008035880001
:10113000160037001e007800004078007f406000f5
:101140000080fb007f0060009235800001fe2f00d0
:101150008100610001007000903588000b003700ad
:101160001e007800004078007f4060000080fb0097
:101170007f006000a235800001fe2f008100610029
:1011800001007000a0358800000000000080fa0017
:10119000000006000400fa00000f78001107980014
:1011a0001e0078008000eb00f20020000300200009
:1011b000820f5000838f580039003e00006001000c
:1011c0000f003700110037001300370015003700fb
:1011d0001700370018003700190037001a003700d1
:1011e0001b0037001c0037001d0037001e003700b1
:1011f0001f0037002100370023003700250037008b
:101200002c43a800c802a800260037002c63a800c1
:10121000c822a800230037002c83a800c842a800d9
:10122000200037002ca3a800c862a8001d003700ca
:10123000c882a8001b003700c8a2a8001900370008
:10124000c8c2a80017003700c8e2a8001500370080
:10125000c902a80013003700c922a80011003700f6
:10126000c942a8000f003700c962a8000d0037006e
:101270002d83a800c982a8000a0037002d63a800aa
:10128000c9a2a800070037002d43a800c9c2a800c2
:10129000040037002d23a800c9e2a8000100370090
:1012a000000000009e0090001e00780076fe0700ff
:1012b0000080fa00000006000000fa002023a900c8
:1012c0000000000000198000610060000000e000e4
:1012d000fcff32002003a900001880000080fa0003
:1012e000000006000c00fa00008fbe0022079800e4
:1012f0003307980044079800550798002e01900086
:10130000be0190001e00be008cfc07004e01900044
:10131000de01900025fd07000080fa0000000600b5
:101320000200fa00000f78001e0078000000e000c4
:101330000500350070002000be030700600020009b
:10134000b1030700050037001e0fea00600020000f
:10135000b803070070002000ab0307001e007800f0
:10136000900307000080fa00000006002800fa0041
:10137000e0c1b300801f78000000eb00801f780000
:101380007702200026c0b3008002eb000002eb00d1
:101390008001eb000001eb008000eb000000eb009f
:1013a000af030700e4875700618621000002280090
:1013b0002702070006022000c5002000b40020001c
:1013c000a30020000001eb0001062000000028001f
:1013d000f7000700d20020008000eb001000200082
:1013e000aa040700b13f2000000028002c020700db
:1013f0008041eb000041eb000102200010002000c2
:10140000040307000000eb0066030700618621006b
:1014100000022800350207008040eb000040eb008e
:101420005000070011c0b300200020009c020700fc
:10143000aa0007000000eb00000f78000020200049
:1014400010408800e6004700100009008018eb00fb
:101450006600470010079800e30020008213200078
:101460008000eb001e0090007d0107001f00370088
:101470001e0090004d040700000f78001e00780049
:10148000a10a2000810f500011003200c10a200083
:10149000810f500015003a001e0090004304070021
:1014a000404798001e0090004004070050479800f5
:1014b0004e4090000080fb00c200dd005e409000c6
:1014c0000080fb000100700010408800070037001a
:1014d0001e00900035040700404798001e00900051
:1014e0003204070050479800000000001e009000e2
:1014f000e6030700e24f5000ddff3e00d6ff370055
:101500003600f800809fbe00829fbe00849fbe0010
:10151000869fbe000000fa0021408000803e20002f
:10152000808f500003003a000428ef007800070085
:1015300003003700204080000000e80020408800c1
:10154000200020009d0207000080fa004f03be002b
:101550004f02be004f01be004f00be003600f90032
:10156000004006000200fa00004f78001147980082
:101570001e80fb004f00dd0002048000f1ff270009
:101580008100610001007000000488001e4090008e
:10159000ef4f500002003600f0c0b3001047980033
:1015a0001e4090000080fb004300de0000407800f9
:1015b000614060000080fb00610060004300dd00ce
:1015c0002202800071ff2f00810061000100700085
:1015d000200288001e409000674060000080fb00f1
:1015e000670060004500dd0012028000f1f12f006d
:1015f0008100610001007000100288000080fa0084
:10160000000006000000fa00100280000050a00058
:101610000060a0000070a000100288000080fa00a6
:10162000000006000000fa002d23a90028e3a9000d
:101630004119800000fe2f00008060009000b30080
:10164000401988001019800000d0a10000e0a1001e
:1016500000f0a100101988002343a9001019800090
:101660000080a1000090a1001019880010198000ce
:101670000020a1000030a1000040a1000050a10006
:10168000101988002223a9002203a90025e3a9003c
:1016900030c0b30024e3b70021a3a9002183a80030
:1016a0002143a900001980000080a1000090a10042
:1016b00000198800001980000050a1000060a100fe
:1016c0000070a100001988002063a9002043a80031
:1016d00021e3a8000080fa00000006000000fa00e4
:1016e0002c83a8002ca3a800cc42a900cc62a9009e
:1016f000cc82a900cca2a900c842a900c862a90056
:10170000c882a900c8a2a9000080fa000000060053
:101710000000fa0000c8bf000040e80000e8b70081
:1017200000c8bf006740600000e8b7006116800095
:1017300030fc2f008080600000c8bf000080fb00ec
:1017400062802000624078000080fb004200dd00e3
:1017500001007000601688000080fa00000006009a
:101760000000fa0000c8bf000040e90000e8b70030
:1017700000c8bf006740600000e8b7006116800045
:1017800030fc2f008080600000c8bf000080fb009c
:1017900062802000624078000080fb004200dd0093
:1017a00001007000601688000080fa00000006004a
:1017b0000e00fa00000f7800110798002207980029
:1017c000330798004407980055079800660798006b
:1017d0002e0090000000e00004003d009e009000fc
:1017e000f0e72f0000806000100798001e009000b6
:1017f0007c006000fc0f500008003a001e009000c2
:1018000063006000e30f500004003a009e00900067
:10181000e0ff2f0000806000100798009e009000fd
:1018200000022000008060000000e00009003a0093
:101830009e00900000202000008060000000e0007a
:10184000040032009e009000f0df2f000080600056
:10185000100798009e00900011128800ae009000c2
:10186000211288009e007800011288001112800069
:1018700000022000008060000000e0002300320031
:101880001112800000002100008060000000e000d4
:101890000a003a00de00900000022000808f500015
:1018a00006003200010120005e00900039fe0700b2
:1018b000810020005e00900005fc070011128000ee
:1018c00000802000008060000000e00007003a0077
:1018d000be00900000022000808f50000300320004
:1018e000710020003e009000f9fb0700ee00900020
:1018f00000022000808f50001a0032008000eb00b0
:101900006e009000f2fb07001600370011128000f5
:1019100000082000008060000000e00007003200a6
:10192000ee00900000022000808f50000300320083
:10193000110120006e00900016fe0700010120003a
:101940005e00900013fe0700be0090000002200021
:10195000808f500003003200710020003e00900094
:10196000dbfb0700f10020004e00900009fe07009d
:101970000080fa00000006000200fa00000f780064
:101980000000000000128000620060000000e00023
:10199000fcff3a008540a90040c2a9009e007800e3
:1019a0004112880000000000001280006100600009
:1019b0000000e000fcff3200401280000080fa00ce
:1019c000000006000600fa00004f7800110798009a
:1019d000220798009e0090002e009000d60007007d
:1019e000090037002e009000f60007000004e00018
:1019f000050032001e80fb00dfff07009e00900004
:101a00002e009000cc00070011c0b3001000200091
:101a1000640307000004a2000004e000f1ff3a00a4
:101a20000080fa00000006000400fa00000f7800b1
:101a3000110798009e0078001e009000be0007006d
:101a4000000000001e009000de0007000004a2005d
:101a50000004e000fbff3a000080fa0000000600ee
:101a60000c00fa0020079800310798004207980000
:101a7000530798002e0090009c0207000004a2006b
:101a80000004e0003200320000022000baff07002c
:101a90003e019000ce00900000c2b300c9ff0700d5
:101aa0001e003700000e2000b3ff0700004f780033
:101ab000be0090005e009000dbff070000c3b30093
:101ac0009e40780080cf50001e003200000e2000a3
:101ad000a9ff070010479800be0090005e0090002c
:101ae000d1ff07009e40900000c3b30080cf50009c
:101af000160032000e80e8001e4190009e407800e3
:101b0000780307000004e00004003a002e40900033
:101b1000804078002e009000800207002e00900088
:101b2000600207000004e000deff3a00000320002e
:101b300091ff0700be0090005e009000baff070012
:101b40000300370000000000010037000000000023
:101b50000080fa00000006000e00fa00300798002e
:101b60004107980052079800630798003e009000d4
:101b7000460207000004e0003300320000012000ac
:101b80007dff07004e019000de00900000c1b30011
:101b90008cff07003e009000a9020700000f7800ac
:101ba0001e007800e10f400006003a00000320000c
:101bb00071ff0700ce0090006e0090009aff0700b2
:101bc000210037001e0078000040780065014700c2
:101bd000e4004700260307004e4090000080fb0011
:101be00065ff070020479800ce0090006e0090002f
:101bf0008dff0700ae40900000c3b30080cf5000bf
:101c00000e0032005e4090000080fb005aff07008b
:101c100030479800ce0090006e00900082ff0700d1
:101c2000be40900000c3b30080cf500005003200da
:101c30003e0090005d020700d6ff37000000000064
:101c400001003700000000000080fa0000000600dc
:101c50000400fa00000f78001107980005e1a900c0
:101c6000000420001e0060000000e00004003200bc
:101c7000d0ff2f001e0060002008880002003700ff
:101c80009e007800210888009e00900011088800be
:101c90000021ef008460a9000080fa000000060027
:101ca0000400fa00000f78001107980011e1a90064
:101cb000000420001e0060000000e000040032006c
:101cc000d0ff2f001e00600080088800020037004f
:101cd0009e007800810888009e00900061088800be
:101ce0000621ef000080fa00000006000400fa0060
:101cf000000f78001107980013e1a90000042000ec
:101d00001e0060000000e00004003200d0ff2f0041
:101d10001e00600090088800020037009e007800d6
:101d2000910888009e009000710888000a21ef0049
:101d30000080fa00000006000400fa00000f78009e
:101d4000110798001e007800e10f50000c003200cf
:101d5000e10f500005003900e20f50000d00320085
:101d6000e30f500010003200140037009e00900076
:101d7000110888000021ef008460a9000f003700df
:101d80009e009000610888000621ef0084e0a90011
:101d90000a0037009e009000710888000a21ef00b9
:101da0008500a900050037009e009000d10888003a
:101db0001421ef008760a900000000000080fa00f5
:101dc000000006000200fa00000f78001e007800f4
:101dd000e10f500011003200e10f50000500390002
:101de000e20f500017003200e30f50001f003200d6
:101df00028003700200480004300de0061406000be
:101e00000080fb0000f0a7000000ea000000ea00ec
:101e10004f00de00004078001f00370020048000e3
:101e20004700de00614060000080fb0000f0a7007a
:101e30000000ea000000ea004f00de0000407800e9
:101e400015003700200480004800de00614060007b
:101e50000080fb0000f0a7000000ea000000ea009c
:101e60004f00de00004078000b0037003004800097
:101e70004b00de00614060000080fb0000f0a70026
:101e80000000ea000000ea004f00de000040780099
:101e9000010037000040eb000080fa00000006005f
:101ea0000400fa00000f7800214798002e409000af
:101eb000e74f50000200360070c0b3002047980082
:101ec0001e007800e10f500014003200e10f5000b6
:101ed00005003900e20f50001d003200e30f5000f2
:101ee00027003200330037002e409000674060002a
:101ef0000080fb00670060004c00dd0022058000d0
:101f0000f1ff2800810061000100700020058800b9
:101f10009460a8008460a900260037002e4090003d
:101f2000674060000080fb00670060004c00dd003f
:101f300032058000f1ff280081006100010070007f
:101f40003005880094e0a80084e0a900190037005b
:101f50002e409000674060000080fb00670060003a
:101f60004205800081ff2f008100610001007000a8
:101f7000400588009500a8008500a9000d003700e5
:101f80002e409000674060000080fb00670060000a
:101f90004c00dd0082058000f1ff28008100610017
:101fa00001007000800588009760a8008760a90084
:101fb000000000000080fa00000006000200fa00a5
:101fc000000f78001e007800e10f50000900320079
:101fd000e10f500005003900e20f50000700320009
:101fe000e30f500007003200080037008460a900aa
:101ff0000600370084e0a900040037008500a9002e
:10200000020037008760a900000000000080fa008d
:10201000000006000800fa00100798002107980049
:102020006247980073479800ae00900000022000bd
:10203000808f500003003200210120002e0090000c
:1020400023fa07001e009000e20f50000b003a0038
:10205000900880004f00de00004078000080fb0008
:1020600000f0a7000000ea000000ea004f00de00d8
:10207000004f780013e1a9000a00370080088000b3
:102080004f00de00004078000080fb0000f0a70059
:102090000000ea000000ea004f00de00004f780078
:1020a00011e1a900200c80000000a1000010a10097
:1020b0000020a100200c88001e0090000010a2004b
:1020c00000f0a7000000ea000000e9004f00de0079
:1020d000004078000080fb00610060004300dd00ec
:1020e000220c800071ff2f00810061000100700050
:1020f000200c88006e4090000080fb0061006000b2
:102100004d00dd00220c8000f1ff2d0081006100f8
:1021100001007000200c88008221ef008021ef0078
:102120007e4090000004e0000200320070c0b30066
:102130000100370060c0b3000080fb006700600052
:10214000220c800081ff2f008100610001007000df
:10215000200c88001e009000e20f500008003a009a
:102160001e80fb004f00dd0092088000f1ff270079
:1021700081006100010070009008880007003700ae
:102180001e80fb004f00dd0082088000f1ff270069
:102190008100610001007000800888000080fa0062
:1021a000000006000200fa00000f78009e00780090
:1021b000010c88000080fa00000006000400fa000c
:1021c000000f780011079800000220009e007800a0
:1021d000808f5000030032008000eb001e0078006a
:1021e000bbf907009e00900000022000808f500085
:1021f00003003200210120001e009000b4f9070006
:102200000080fa00000006000200fa00000f7800cb
:10221000000220009e007800808f500003003200f2
:10222000210120001e007800a9f907000080fa00b3
:10223000000006000200fa00000f780000022000f3
:102240009e007800808f5000030032008000eb0079
:102250001e0078009ef907000080fa0000000600ca
:102260001000fa00000f780011079800220798006c
:10227000330798004407980055079800464f980088
:10228000770798009e007800113a8800ce489000a9
:1022900010c2b30080cf500003003e004e489000b3
:1022a000e14f500003003e000040eb00404f98001b
:1022b000030037004e48900000c0e900404f9800ee
:1022c0009e009000213a88003e0090000040780077
:1022d000674060000080fb00670060004c00dd008c
:1022e000223a8000f1ff28008100610001007000a7
:1022f000203a88005e009000004078006340600053
:102300000080fb00630060004600dd00223a800090
:10231000f1f32f008100610001007000203a880075
:102320004e4890007f4060000080fb007f0060000e
:10233000223a800001fe2f00810061000100700040
:10234000203a8800fe00900010202000808f50006e
:1023500003003e007e009000e10f500003003e00ad
:102360000000eb0070079800030037007e0090002b
:102370000080e90070079800fe009000313a880064
:10238000eef09700f0c3b30080cf5000020036009b
:102390000040eb0060f79f006ef097000080fb00ac
:1023a000403a8800ae009000513a88004eb897003d
:1023b00000407800614060000080fb006100600028
:1023c0004700dd00523a8000f1f72f0081006100e4
:1023d00001007000503a88000080fa0000000600fa
:1023e0000400fa0020479800103a80004300de0005
:1023f000614060000080fb0000f0a7000000ea00e0
:102400000000ea004f00de00004f78002e409000f0
:102410000004e000010032004267a9001e4078007d
:102420000080fa00000006000200fa00004f780069
:102430001e80fb006100600000004000123a800036
:10244000d1ff2f008100610001007000103a880068
:102450000080fa00000006000200fa00004f780039
:102460004207a8001e4078000004e000050032008a
:1024700000000000103a8000610060000000e000f1
:10248000fcff3a000080fa00000006000200fa009b
:10249000000f78001e007800104090000080fa00c5
:1024a000000006000200fa00000f78001e0078000d
:1024b0001040900001c2b30000c050000080fa003c
:1024c000000006000200fa00000f78001e007800ed
:1024d000104090000080fb000000e9004f00de008b
:1024e000004078000080fa00000006000200fa00b8
:1024f000000f78001e0078009040900000c2b300ea
:1025000000c068000080fb000000e9004f00de0012
:10251000004078000080fa00000006000600fa0083
:1025200010079800414798001e00900090409000ce
:1025300000c2b30080cf500002003a000040eb0020
:10254000180037001e009000904078001e00900098
:102550001040900000c040007f4f60001e80fb00d4
:102560009e00900000804000ce40900021409800e6
:102570001e009000104090008040e8001e00900077
:10258000114098001e0090009040900000c2b300df
:1025900000c068000080fb000000e9004f00de0082
:1025a000004078000080fa00000006000400fa00f5
:1025b000100798001e009000104090000004e000fa
:1025c00002003a000080eb00140037001e0090006b
:1025d000104078000080fb009e0090000080e80022
:1025e000614078000080fb00000f78001e00900022
:1025f000104078000040e800ff4060001e0090009e
:10260000014878001e009000104090008040e900d2
:102610001e009000114098001e0078000080fa0013
:10262000000006000200fa00000f78001e0078008b
:102630008040eb00114098000080fa000000060086
:102640000400fa00100798001e009000104090004f
:102650000004e00002003a000080eb0009003700af
:102660001e009000104078000080fb009e0090004b
:102670000080e800614078000080fb00000f7800d7
:102680001e0078000080fa00000006000600fa0034
:10269000000f780011079800220798001e007800ac
:1026a000e10f500015003200e10f50000300390027
:1026b000e20f500025003200380037001e00900065
:1026c0000000a20000f0a7000000ea000000e900fe
:1026d0004f00de00004078000080fb0061006000d9
:1026e00012048000e1ff2f008100610001007000f2
:1026f000100488008400a900280037008000eb0047
:102700002e009000a3fa07001e0090000000a20017
:1027100000f0a7000000ea000000e9004f00de0022
:10272000004078000080fb00610060000000400075
:1027300012048000d1ff2f008100610001007000b1
:10274000100488008680a9001400370011002000c2
:102750002e0090008ffa07001e0090000000a200db
:1027600000f0a7000000ea000000e9004f00de00d2
:10277000004078000080fb00610060004200dd0046
:1027800012048000b1ff2f00810061000100700081
:102790001004880087a0a900000000000080fa0053
:1027a000000006000400fa00000f7800214798009e
:1027b0001e007800e10f500011003200e10f5000c0
:1027c00003003900e20f50001900320025003700e5
:1027d00020048000610060000000e000060032007c
:1027e0002e4090000004e000010032008400a900a7
:1027f00010c0b3001c0037000040eb001a00370087
:1028000030048000700060000000e000060032002c
:102810002e4090000004e000010032008680a900f4
:1028200010c0b300100037000040eb000e0037006e
:102830003104800000002200008060000000e00001
:10284000060032002e4090000004e000010032003b
:1028500087a0a90010c0b300030037000040eb00c0
:10286000010037000040eb000080fa000000060085
:102870000600fa00004f7800110798002207980020
:102880001e00900001cab300014878002e0090009d
:1028900001cab300014878001e0090009040780003
:1028a0001e80fb004400de000040780080c0700005
:1028b0001e009000014878002e0090001040780023
:1028c000804078001e4078006f40600000c07000bb
:1028d000804078002e009000014878000080fa00c7
:1028e000000006000400fa00000f7800214798005d
:1028f000324798002e4090008080fb00000f20009f
:1029000080806000000a2000808f500002003200aa
:1029100000c0eb00140037003e4090008080fb00b8
:10292000000f200080806000000a2000808f50008f
:1029300002003200e0cfb3000b0037002e409000c1
:102940000080fb004400dd00804078003e409000a5
:102950006f40600000c07000804078001e0078006a
:10296000014878000040eb000080fa0000000600fb
:020000040000fa
:102970000608000008000000020000000103020039
:1029800006040c0008090000000800000600000012
:0829900000000000000000003f
:020000040000fa
:0200000401f009
:04000000cf0000002d
:020000040000fa
:0200000401f009
:04000400cf00000029
:020000040000fa
:0200000401f009
:0400080007000000ed
:020000040000fa
:0200000401f009
:04000c00810000006f
:020000040000fa
:0200000401f009
:04001000a300000049
:020000040000fa
:0200000401f009
:040014005f00000089
:020000040000fa
:0200000401f009
:04001800f7000000ed
:020000040000fa
:0200000401f009
:04001c00dfff000002
:00000001FF
